:020000040800F2
:10000000C011002001010008191D00081B1D000877
:100010001F1D0008231D0008271D00080000000008
:100020000000000000000000000000002B1D000880
:100030002D1D0008000000002F1D0008311D0008C4
:100040001B0100081B0100081B0100081B01000820
:100050001B0100081B0100081B0100081B01000810
:100060001B0100081B0100081B0100081B01000800
:100070001B0100081B0100081B0100081B010008F0
:100080001B0100081B0100081B0100081B010008E0
:100090001B0100081B0100081B0100081B010008D0
:1000A0001B0100081B0100081B0100081B010008C0
:1000B0001B0100081B010008651F00081B01000848
:1000C0001B0100081B0100081B0100081B010008A0
:1000D0001B0100085B2100087F2F00081B0100089E
:1000E0001B0100081B0100081B010008DFF80CD0F1
:1000F00003F070F900480047051D0008C0110020FA
:100100000648804706480047FEE7FEE7FEE7FEE7B1
:10011000FEE7FEE7FEE7FEE7FEE7FEE70302000874
:10012000ED0000080CB50020019000906C480068BC
:1001300040F480306A49086000BF6948006800F4F4
:10014000003000900198401C0190009818B9019867
:10015000B0F5A06FF1D16248006800F4003010B132
:100160000120009001E0002000900098012843D178
:100170005C48006840F010005A4908600846006872
:1001800020F0030008600846006840F002000860A4
:1001900053484068524948600846406848600846ED
:1001A000406840F4806048600846406820F47C1055
:1001B00048600846406840F4E81048600846006817
:1001C00040F08070086000BF4548006800F0007093
:1001D0000028F9D04248406820F0030040494860B8
:1001E0000846406840F00200486000BF3C48406854
:1001F00000F00C000828F9D10CBD10B5FFF792FFF4
:1002000010BD10B53648006840F001003449086060
:10021000084640683449084031494860084600684B
:10022000324908402E4908600846006820F48020C2
:1002300008600846406820F4FE0048604FF41F0044
:100240008860FFF7DAFF4FF000602949086010BDB1
:1002500010B5002100200022214B5B6803F00C0147
:1002600021B1042906D0082928D107E0214B224CCE
:10027000236027E01F4B204C236023E0184B5B6872
:1002800003F47010164B5B6803F48032022303EB17
:10029000904022B9194B4343174C23600DE0104B9B
:1002A0005B6803F4003323B1144B4343124C2360C7
:1002B00003E0104B4343104C236003E00D4B0E4C06
:1002C000236000BF00BF064B5B68C3F303130C4CF5
:1002D000E15C094B1B68CB40074C236010BD00005C
:1002E00000100240002002400000FFF8FFFFF6FE71
:1002F00008ED00E000127A000000002000093D0037
:100300000400002031490143314A1160704770B543
:10031000002100230F22C47804B32D4C246804F478
:10032000E064C4F5E064210AC1F10403CA404478E2
:1003300004FA03F18478144021430901254C06781E
:10034000A155047804F01F050124AC4005786D1117
:10035000AD0005F1E025C5F8004109E0047804F09E
:100360001F050124AC401C4D0678761145F8264047
:1003700070BD1A4A0A400243154B1B1F1A60704792
:1003800039B1134A121D12680243114B1B1D1A602A
:1003900006E00F4A121D126882430D4B1B1D1A60A6
:1003A0007047042808D14FF0E021096941F00401A9
:1003B0004FF0E022116107E04FF0E021096921F0E0
:1003C00004014FF0E0221161704700000000FA05BF
:1003D0000CED00E000E400E080E100E080FFFF1FA2
:1003E00010B50446CC48844208D10121042000F015
:1003F0002DFB0021042000F029FB46E0C748844281
:1004000008D10121082000F021FB0021082000F084
:100410001DFB3AE0C248844208D10121102000F0BF
:1004200015FB0021102000F011FB2EE0BD48844296
:1004300008D10121202000F009FB0021202000F03C
:1004400005FB22E0B848844208D10121402000F099
:10045000FDFA0021402000F0F9FA16E0B34884428A
:1004600008D10121802000F0F1FA0021802000F065
:10047000EDFA0AE0AE48844207D10121801500F070
:10048000E5FA0021A01500F0E1FA10BD10B5012138
:10049000084600F0DBFA0021012000F0D7FA10BD79
:1004A0002DE9F0410246002500260020002300240B
:1004B000002791F803C00CF00F0591F803C00CF071
:1004C000100CBCF1000F03D091F802C04CEA0505F6
:1004D00091F800C0BCF1000F31D0146800202BE06F
:1004E0004FF0010C0CFA00F3B1F800C00CEA03065F
:1004F0009E4220D183004FF00F0C0CFA03F7BC434F
:1005000005FA03FC4CEA040491F803C0BCF1280F7F
:1005100006D14FF0010C0CFA00FCC2F814C00AE03E
:1005200091F803C0BCF1480F05D14FF0010C0CFA53
:1005300000FCC2F810C0401C0828D1D31460B1F8E8
:1005400000C0BCF1FF0F34DD546800202EE000F144
:10055000080C4FF0010808FA0CF3B1F800C00CEADF
:1005600003069E4221D183004FF00F0C0CFA03F7D3
:10057000BC4305FA03FC4CEA040491F803C0BCF147
:10058000280F05D100F1080C08FA0CF8C2F8148005
:1005900091F803C0BCF1480F07D100F1080C4FF0EF
:1005A000010808FA0CF8C2F81080401C0828CED3C5
:1005B0005460BDE8F0814FF6FF7101800221817027
:1005C0000421C17070470246002093680B400BB1B4
:1005D000012000E0002070470146886880B2704723
:1005E00002460020D3680B400BB1012000E0002040
:1005F00070470146C86880B2704701617047416129
:1006000070470AB1016100E041617047C160704705
:100610004FF480320A43826181618261826982691A
:10062000704702460020434B18684FF6807318400D
:1006300040EA021008433F4B186070473E49C861CA
:100640007047F0B50A46002300240021002500F081
:100650000046B6F1004F02D1364EF16901E0354E49
:100660007168C0F3034583B200F44016B6F5401F2D
:1006700008D121F070612F4E766826F070662D4FFC
:100680007E6012E000F48016B6F5801F06D10326C6
:1006900006FA05F4A14341F0706106E0460D36010B
:1006A00003FA06F6B14341F0706122B1460D3601FE
:1006B00003FA06F6314300F00046B6F1004F02D1CE
:1006C0001C4EF16101E01B4E7160F0BD30B500229F
:1006D0008B071C0F0F2303FA04F2164B08338C1000
:1006E00053F824309343134C08348D1044F82530CC
:1006F00023468C1053F824308C07240F00FA04F49E
:1007000023430C4C08348D1044F8253030BD0A4981
:10071000DC3108607047000000080140000C014017
:10072000001001400014014000180140001C01406D
:10073000002001400000014000002042DF48006826
:1007400040F00100DD49086008464068DC49084087
:10075000DA49486008460068DA490840D749086025
:100760000846006820F4802008600846406820F4AD
:10077000FE0048604FF41F0088607047CF49096849
:1007800021F48031CD4A11601146096821F480219D
:100790001160B0F5803F03D0B0F5802F0ED106E098
:1007A000C649096841F48031C44A116007E0C34971
:1007B000096841F4A021C14A116000E000BF00BFF8
:1007C000704710B501460022002300204A11012A7B
:1007D00002D1BA4C236806E0022A02D1B74C236A40
:1007E00001E0B64C636A01F01F02012494401C40F2
:1007F0000CB1012000E0002010BD38B500200090B1
:100800000024002500BF3120FFF7DBFF05460098DC
:10081000401C00900098B0F5A06F01D0002DF2D0E0
:100820003120FFF7CEFF08B1012400E0002420466C
:1008300038BD01460020A14A106820F0F80040EAC7
:10084000C10010607047A049086070470246002050
:100850009A4B586820F47C1042EA01031843974BE6
:100860005860704798490866704701460020934ACF
:10087000506820F003000843506070478F4840687C
:1008800000F00C007047014600208C4A506820F0B0
:10089000F00008435060704701460020874A5068C6
:1008A00020F4E06008435060704701460020834A0E
:1008B000506820F4605040EAC1005060704729B190
:1008C0007E4A527A02437D4B5A7204E07B4A527A46
:1008D00082437A4B5A7270477B49D831086070471F
:1008E00001460020754A506820F44040084350609B
:1008F00070470021714A20321170704A82F820102E
:10090000012802D004280AD104E001216B4A2032D8
:10091000117005E00521694A2032117000E000BF26
:1009200000BF70476949086070476449096A01431C
:10093000624A11627047654944390860704730B5B2
:1009400000210022002400235C4D6D6805F00C019D
:1009500021B1042905D0082923D105E05C4D0560AB
:1009600022E05B4D05601FE0544D6D6805F4701288
:10097000524D6D6805F48034022505EB92421CB996
:10098000544D554305600BE04C4D6D6805F4003542
:100990001DB1504D5543056002E04D4D5543056076
:1009A00002E04B4D056000BF00BF444D6D6805F08F
:1009B000F0010909484D6B5C0568DD4045603F4D1D
:1009C0006D6805F4E061090A434D6B5C4568DD40E4
:1009D00085603A4D6D6805F46051C90A3E4D6B5C07
:1009E0004568DD40C560354D6D6805F44041890BB3
:1009F0003A4D6B5CC568B5FBF3F5056130BD29B1B7
:100A00002E4A526902432D4B5A6104E02B4A526927
:100A100082432A4B5A61704729B1284A926902439E
:100A2000264B9A6104E0254A92698243234B9A61DE
:100A3000704729B1214AD2690243204BDA6104E0B0
:100A40001E4AD26982431D4BDA61704729B11B4AA5
:100A5000D2680243194BDA6004E0184AD268824334
:100A6000164BDA60704729B1144A12690243134BDE
:100A70001A6104E0114A12698243104B1A617047EF
:100A800012494039086070470F49C86470470B49E4
:100A9000C87170470948406A40F080700749486251
:100AA000704701460020054A92680A400AB10120B9
:100AB00000E0002070470149887270470010024032
:100AC0000000FFF8FFFFF6FE0000424280044242B1
:100AD00000127A0000093D001400002024000020CC
:100AE00010B50446FE48844208D10121C014FFF726
:100AF000ADFF0021E014FFF7A9FFC4E0B4F1804F7F
:100B000008D101210846FFF7AEFF00210120FFF7C1
:100B1000AAFFB8E0F348844208D101210220FFF780
:100B2000A2FF00210220FFF79EFFACE0EE488442C6
:100B300008D101210420FFF796FF00210420FFF7D0
:100B400092FFA0E0E948844208D101210820FFF784
:100B50008AFF00210820FFF786FF94E0E4488442E2
:100B600008D101211020FFF77EFF00211020FFF7A0
:100B70007AFF88E0DF48844208D101212020FFF776
:100B800072FF00212020FFF76EFF7CE0DA488442EC
:100B900008D101214014FFF759FF00216014FFF72D
:100BA00055FF70E0D548844209D10121C804FFF700
:100BB0004DFF00214FF40020FFF748FF63E0D048CD
:100BC000844209D101210805FFF740FF00214FF4BD
:100BD0008010FFF73BFF56E0CA48844209D101214B
:100BE0004805FFF733FF00214FF40010FFF72EFFF9
:100BF00049E0C548844208D101214020FFF733FF76
:100C000000214020FFF72FFF3DE0C048844208D17B
:100C100001218020FFF727FF00218020FFF723FF1D
:100C200031E0BB48844208D101218015FFF71BFF4A
:100C30000021A015FFF717FF25E0B648844209D12F
:100C400001210804FFF702FF00214FF48030FFF775
:100C5000FDFE18E0B048844209D101214804FFF7A5
:100C6000F5FE00214FF40030FFF7F0FE0BE0AB483B
:100C7000844208D101218804FFF7E8FE00214FF4E7
:100C80008020FFF7E3FE10BD00220288944B9842BB
:100C90000ED0994B98420BD0B0F1804F08D0914BB9
:100CA000984205D0904B984202D0904B984204D184
:100CB0004FF68F731A404B881A438D4B984207D0DA
:100CC0008C4B984204D04FF6FF431A40CB881A430E
:100CD00002808B8883850B880385814B98420BD0DB
:100CE000854B984208D08B4B984205D08A4B98424E
:100CF00002D08A4B984201D10B7A0386012383826A
:100D0000704770B5002400220023058C4FF6FE7654
:100D100035400584028C8388048B4FF68F752C40F8
:100D2000B51E2C400D882C43751E2A400D892A4380
:100D30004D882A436A4DA8420BD06F4DA84208D077
:100D4000744DA84205D0744DA84202D0734DA842FC
:100D500013D14FF6F7752A404D892A434FF6FB759C
:100D60002A408D882A434FF6FF652B404FF6FF55EA
:100D70002B408D892B43CD892B4383800483CD88E1
:100D80008586028470BD70B5002400220023058C86
:100D90004FF6EF7635400584028C8388048B48F645
:100DA000FF752C404FF6FF452C400D884FF6FF761F
:100DB00006EA05252C434FF6DF752A400D8906EA21
:100DC00005152A434D8806EA05152A43444DA842D5
:100DD00002D0494DA8421DD14FF67F752A404D895A
:100DE0004FF6FF7606EA05152A434FF6BF752A40EF
:100DF0008D8806EA05152A434FF6FF352B404FF242
:100E0000FF752B408D8906EA85052B43CD8906EABF
:100E100085052B4383800483CD880587028470BDBC
:100E200070B5002400220023058C4FF6FF66354084
:100E30000584028C8388848B4FF68F752C404FF687
:100E4000FC752C400D882C434FF6FF552A400D8928
:100E50004FF6FF7606EA05252A434D8806EA052562
:100E60002A431F4DA84202D0234DA8421DD14FF264
:100E7000FF752A404D894FF6FF7606EA05252A437D
:100E80004FF6FF352A408D8806EA05252A434EF69F
:100E9000FF752B404DF6FF752B408D8906EA051531
:100EA0002B43CD8906EA05152B4383808483CD88A7
:100EB0008587028470BD70B5002200230024058C54
:100EC0004EF6FF7635400584038C8488828B48F685
:100ED000FF752A404FF6FF452A400D8820E00000AC
:100EE000002C01400004004000080040000C0040BD
:100EF000001000400014004000340140004C01404C
:100F0000005001400054014000180040001C004007
:100F100000200040004001400044014000480140E2
:100F20004FF6FF7606EA05252A434DF6FF752B405E
:100F30000D8906EA05352B434D8806EA05352B4316
:100F4000FA4DA84202D0FA4DA84208D14BF6FF75DF
:100F50002C408D894FF6FF7606EA85152C43848058
:100F60008283CD88A0F84050038470BD828B4FF2FD
:100F7000FF331A408283828B4FF6FF7303EA01230B
:100F80001A4382837047F0B50C46154600220021B3
:100F90000026078C4EF6FF7C07EA0C070784828B3D
:100FA000018C4FF6FF7707EA043640F6FF473A40D8
:100FB0004FF6FF7707EA05273A434FF6FF7707EA30
:100FC00003373A43D94FB8420ED0D94FB8420BD06D
:100FD000B0F1804F08D0D74FB84205D0D64FB842B5
:100FE00002D0D64FB84206D14DF6FF77394046F4CD
:100FF0008057394305E047F6FF57394044F480579E
:10100000394382830184F0BD828B4FF6F3731A401B
:101010008283828B0A4382837047F0B50C46154663
:10102000002200210026078C4FF6FF6C07EA0C0710
:101030000784828B018C4FF6FF7707EA04264FF670
:101040000C773A404FF6FF7707EA03172F433A43EE
:10105000B64FB8420ED0B64FB8420BD0B0F1804F69
:1010600008D0B44FB84205D0B34FB84202D0B34F06
:10107000B84206D14FF6FF57394046F480773943DE
:1010800005E04FF2FF57394044F4807739438283BB
:101090000184F0BD028B4FF2FF331A400283028BB2
:1010A0004FF6FF7303EA01231A4302837047F0B53A
:1010B0000C461546002200210026078C4FF6EF7CD7
:1010C00007EA0C070784028B018C4FF6FF7707EACB
:1010D000041640F6FF473A404FF6FF7707EA03371A
:1010E0003A434FF6FF7707EA05273A438F4FB84256
:1010F0000ED08F4FB8420BD0B0F1804F08D08D4F3B
:10110000B84205D08C4FB84202D08C4FB84206D1BD
:101110004FF6DF77394046F01007394305E04FF6C8
:101120005F77394044F01007394302830184F0BDF2
:10113000028B4FF6F3731A400283028B0A43028339
:101140007047F0B50C46154600220021068C4FF67C
:10115000FE773E400684028B018C4FF60C763240BF
:101160007E1C06EA03162E433243704EB0420ED068
:101170006F4EB0420BD0B0F1804F08D06D4EB042F0
:1011800005D06D4EB04202D06C4EB04206D14FF643
:10119000FD76314044F00106314305E04FF6F57627
:1011A000314044F00106314302830184F0BD70B543
:1011B00005460C465D4885420ED05D4885420BD001
:1011C000B5F1804F08D05B48854205D05A4885422A
:1011D00002D05A48854200D100E000BF208850B9B3
:1011E0002389A28861882846FFF7ABFFE18828465B
:1011F000FFF79EFF25E0208804280AD12389A288D2
:1012000061882846FFF753FFE1882846FFF742FF31
:1012100017E0208808280AD12389A28861882846F7
:10122000FFF7FBFEE1882846FFF7EEFE09E0238981
:10123000A28861882846FFF7A6FEE1882846FFF7C6
:1012400095FE70BD2DE9F04105460C4600260127AC
:10125000608808B9022600E00026A088012801D194
:10126000022700E001272088A0B92389A28861888D
:101270002846FFF766FFE1882846FFF759FF2389D4
:101280003A4631462846FFF712FFE1882846FFF725
:1012900001FF13E02389A28861882846FFF707FF32
:1012A000E1882846FFF7F6FE23893A46314628466C
:1012B000FFF747FFE1882846FFF73AFFBDE8F081D6
:1012C0000A884B881A438B881A43CB881A430B89A8
:1012D0001A434B891A438B891A43A0F8442070475C
:1012E0004FF6FF71818000210180C1804180017231
:1012F00070470021018041808180C180018141814E
:101300008181C1817047002101804180012181805C
:101310000021C180018170470021018041808180CE
:10132000C18001814181818170470000002C014012
:10133000003401400004004000080040000C004060
:1013400021B1028842F00102028004E002884FF6D7
:10135000FE731A400280704731B1B0F8442042F465
:101360000042A0F8442005E0B0F84420C2F30E0289
:10137000A0F8442070471AB183890B43838102E0AF
:1013800083898B43838170478182704741EA0203DE
:10139000A0F8483070471AB183890B43838102E07B
:1013A00083898B438381704701894FF6F87211401E
:1013B000018170470A46002101894FF68F73194059
:1013C00011430181704730B504460D462946204639
:1013D000FFF7F0FF208940F00700208130BD2DE9A4
:1013E000F04104460D4616461F46602D06D13B4689
:1013F000012231462046FFF75AFE05E03B46012216
:1014000031462046FFF79DFE29462046FFF7D2FFD2
:10141000208940F007002081BDE8F08130B50C46FE
:1014200000210189C9B24FF6FF7505EA032515436E
:1014300025432943018130BD2DE9F04105460E4683
:1014400017469846002443463A4631462846FFF759
:10145000E5FF2C894FF6F870044044F007044FF67E
:101460008F70044044F070042C81BDE8F081F0B529
:1014700004460D4616461F463B4632462946204640
:10148000FFF7CCFF208940F480402081F0BD01852A
:10149000828270470A46002101884FF68F731940F7
:1014A000114301807047F0B50C4615461E460021D9
:1014B000002200230189028B038C4FF6F877394014
:1014C00021434FF6FC473A4040F201173A434FF6AA
:1014D000DD773B404FF6FF7707EA06172F433B4384
:1014E000018102830384F0BD0A460021018B4FF67F
:1014F0008F7319401143018370470A460021018B05
:1015000048F6FF7319404FF6FF7303EA02231943AD
:10151000018370470A460021818B4FF68F73194073
:101520001143818370470A460021818B48F6FF737F
:1015300019404FF6FF7303EA022319438183704772
:1015400021B1028842F08002028004E002884FF656
:101550007F731A400280704721B1828842F00402F2
:10156000828004E082884FF6FB731A4082807047C5
:1015700021B1828842F00802828004E082884FF61E
:10158000F7731A408280704721B1828842F00102CD
:10159000828004E082884FF6FE731A408280704792
:1015A0000A460021018B4FF6F7731940114301835E
:1015B00070470A460021018B4FF2FF7319404FF626
:1015C000FF7303EA02231943018370470A4600218F
:1015D000818B4FF6F77319401143818370470A4698
:1015E0000021818B4FF2FF7319404FF6FF7303EA1E
:1015F00002231943818370470A460021018B4FF66D
:10160000FB7319401143018370470A460021018B87
:101610004FF6FF3319404FF6FF7303EA02231943D5
:10162000018370470A460021818B4FF6FB731940F6
:101630001143818370470A460021818B4FF6FF33A7
:1016400019404FF6FF7303EA022319438183704761
:101650000A460021018B4FF67F7319401143018325
:1016600070470A460021018BC1F30E014FF6FF734C
:1016700003EA02231943018370470A460021818B44
:101680004FF67F7319401143818370470A4600214A
:10169000818BC1F30E014FF6FF7303EA0223194356
:1016A000818370470A460021018C4FF6FD73194073
:1016B0001143018470470A460021018C4FF6F773ED
:1016C00019401143018470470A460021018C4FF6EE
:1016D000DF7319404FF6FF7303EA021319430184C5
:1016E00070470A460021018C4FF67F7319404FF670
:1016F000FF7303EA02131943018470470A4600216D
:10170000018C4FF6FF5319404FF6FF7303EA022393
:101710001943018470470A460021018C4FF2FF7380
:1017200019404FF6FF7303EA0223194301847047FF
:101730000A460021018C4DF6FF7319404FF6FF73E6
:1017400003EA023319430184704730B500230124B2
:101750008C40A3B2048C9C430484048C02FA01F5EF
:10176000ADB22C43048430BD30B5002304248C403A
:10177000A3B2048C9C430484048C02FA01F5ADB23C
:101780002C43048430BD70B5034600200024184665
:10179000183001258D40ACB21D8CA5431D8409B1C4
:1017A000082909D100EB6100056825F07005056086
:1017B0000568154305600EE00D1FC5F34E0528446E
:1017C000056825F4E045056005684FF6FF7606EAF2
:1017D00002263543056070BD21B1028842F0020245
:1017E000028004E002884FF6FD731A4002807047C1
:1017F00021B1028842F00402028004E002884FF620
:10180000FB731A400280704721B1828842F0800247
:10181000828004E082884FF67F731A40828070478E
:1018200002884FF6F7731A40028002880A4302804A
:10183000704782884FF68F731A40828082880A43ED
:101840008280704702894FF6F8731A40028102893C
:101850000A430281704702894FF67F731A40028162
:1018600002890A43028170478184704781857047ED
:10187000818670470187704781877047A0F84010C4
:10188000704702884FF6FF431A40028002880A43DD
:10189000028070470146888E70470146088F704766
:1018A0000146888F70470146B1F8400070470146F5
:1018B000888C70470146088D704702460020138AC5
:1018C0000B400BB1012000E000207047CA430282A8
:1018D000704730B50246002000230024158A05EA2F
:1018E0000103958905EA010413B10CB1012000E060
:1018F000002030BDCA4302827047000010B5044684
:10190000FB48844209D101218803FFF79FF8002199
:101910004FF48040FFF79AF832E0F648844209D14C
:1019200001214804FFF79FF800214FF40030FFF732
:101930009AF825E0F048844209D101218804FFF794
:1019400092F800214FF48020FFF78DF818E0EB4863
:10195000844209D10121C804FFF785F800214FF422
:101960000020FFF780F80BE0E548844208D1012110
:101970000805FFF778F800214FF48010FFF773F89F
:1019800010BD2DE9F04786B005460E460024A2465C
:1019900000BFA1460027B08900B100BF2F462C8AA6
:1019A0004CF6FF700440F08804432C82AC894EF65C
:1019B000F3100440B0883189084371890843044317
:1019C000AC81AC8A4FF6FF400440B0890443AC823E
:1019D00001A8FEF7B4FFC648874202D1DDF810A087
:1019E00001E0DDF80CA0A88900F4004040B10AEB4A
:1019F000CA0000EB0A1031684900B0FBF1F807E0BB
:101A00000AEBCA0000EB0A1031688900B0FBF1F85C
:101A10006420B8FBF0F004012009642101FB108967
:101A2000A88900F4004040B1322000EBC900B0FBAF
:101A3000F1F000F00700044308E0322000EB091049
:101A40006421B0FBF1F000F00F0004432C8106B0DC
:101A5000BDE8F0874FF41651016000218180C180FC
:101A600001810C21418100218181704710B502461E
:101A70000020108A4FF2FF0318400B884C88234344
:101A80008C882343CC8823431843108210BD002147
:101A9000018041808180C180704721B1828942F4F8
:101AA0000052828104E082894DF6FF731A408281E0
:101AB0007047F0B50346002400260025002040F6BC
:101AC0006A17B94200D100BF1846C1F3421401F0B1
:101AD0001F06012707FA06F5012C01D10C3004E09E
:101AE000022C01D1103000E014301AB107682F43E6
:101AF000076002E00768AF430760F0BD1AB1838A50
:101B00000B43838202E0838A8B4383827047028A7D
:101B10004FF6F0731A400282028A0A43028270472B
:101B200082894FF2FF731A40828182890A4382813F
:101B3000704721B1828942F00202828104E08289E9
:101B40004FF6FD731A4082817047028A4FF6DF73A9
:101B50001A400282028A0A430282704721B1028A35
:101B600042F48042028204E0028A4BF6FF731A407C
:101B700002827047C1F3080282807047014688885C
:101B8000C0F308007047818941F0010181817047ED
:101B9000028BD2B20283028B42EA01220283704797
:101BA000028B02F47F420283028B0A430283704756
:101BB00021B1828A42F02002828204E0828A4FF6BA
:101BC000DF731A408282704721B1828A42F010028C
:101BD000828204E0828A4FF6EF731A408282704755
:101BE00021B1828A42F00802828204E0828A4FF6A2
:101BF000F7731A408282704721B1828942F4004211
:101C0000828103E08289C2F30E028281704721B192
:101C1000828A42F40062828204E0828A4FF2FF7379
:101C20001A4082827047828A4FF6FB731A40828282
:101C3000828A0A438282704721B1828A42F002027C
:101C4000828204E0828A4FF6FD731A4082827047D6
:101C500002460020B1F5007F00D100BF13880B4081
:101C60000BB1012000E00020704701F40072B2F5D2
:101C7000007F00D100BFCA430280704770B50246A2
:101C8000002400230025002040F66A16B14200D14E
:101C900000BFC1F3421501F01F03012606FA03F34A
:101CA000012D02D19689334006E0022D02D1168A19
:101CB000334001E0968A33400C12012606FA04F400
:101CC0001688344013B10CB1012000E0002070BD33
:101CD00010B50022002340F66A14A14200D100BFD3
:101CE0000A1201249440A3B2DC43048010BD00001A
:101CF000003801400044004000480040004C0040D3
:101D00000050004000F016F800F026F900F0CBFB80
:101D100001E000F0F0FBFCE7704700BFFEE700BF0A
:101D2000FEE700BFFEE700BFFEE770477047704761
:101D3000704700004FF0E020006920F004004FF0F1
:101D4000E02108610920364908700846007800EB58
:101D50004001C1EBC0104FF6FF7101EAC0003149EC
:101D600008807047002120F07F402D4A12784243BE
:101D70004FF0E0235A6100229A6101221A6100BFEC
:101D80004FF0E022116901F001021AB101F4803232
:101D9000002AF5D000224FF0E0231A619A617047C3
:101DA000002100B9704720F07F401E4A128842434C
:101DB0004FF0E0235A6100229A6101221A6100BFAC
:101DC0004FF0E022116901F001021AB101F48032F2
:101DD000002AF5D000224FF0E0231A619A6100BF7B
:101DE000E0E770B50446002600254FF4FA7094FB36
:101DF000F0F0C6B24FF4FA7094FBF0F100FB114022
:101E000085B205E04FF4FA70FFF7CAFF701EC6B244
:101E1000002EF7D115B12846FFF7C2FF70BD0000B4
:101E2000280000202A00002008B501210420FEF728
:101E3000F3FDE020ADF8000048208DF8030069466E
:101E40002648FEF72DFB08BD10B5044614B101204D
:101E5000234908702248007848B320211F48FEF724
:101E6000B2FB48B140211D48FEF7ADFB20B18021F7
:101E70001A48FEF7A8FBD0B90A20FFF791FF00200F
:101E80001749087020211548FEF79DFB08B901206D
:101E900010BD40211148FEF796FB08B90220F7E774
:101EA00080210E48FEF78FFBA8B90320F0E7202120
:101EB0000A48FEF788FB01280DD140210748FEF7AC
:101EC00082FB012807D180210448FEF77CFB012812
:101ED00001D1034908700020DAE700000008014042
:101EE0002C00002008B54FF4E060FEF70BFA1E202E
:101EF0008DF8000001208DF8010002208DF802000D
:101F000001208DF803006846FEF701FA08BD0EB502
:101F100001210420FEF78DFD4FF47A70ADF8040026
:101F20004720ADF800000020ADF80600ADF8020033
:101F30008DF8080069461248FEF7A6FE01211048F8
:101F4000FFF7C4FC012211460D48FFF714FA0121E6
:101F50000B48FFF7F5F90EBD10B5FFF7C3FFFFF70C
:101F6000D6FF10BD10B501210548FFF7B2FC28B11E
:101F700001210348FFF7BEFC00F08FFA10BD0000FE
:101F80000008004010B586B0044601210420FEF789
:101F900043FD01218803FEF73FFD18208DF817004F
:101FA0004FF40070ADF8140003208DF8160005A959
:101FB0007048FEF775FA04208DF817000002ADF89E
:101FC000140003208DF8160005A96A48FEF768FA88
:101FD00001940020ADF810000C20ADF80E00002098
:101FE000ADF80C00ADF80A00ADF8080001A9624890
:101FF000FFF7C7FC01216048FFF74FFD012240F2C7
:1020000025515D48FFF755FD25208DF80000012082
:102010008DF8030000208DF8010002208DF80200E9
:102020006846FEF774F906B010BD10B586B00446D8
:1020300001210420FEF7F0FC01214804FEF7F9FC21
:1020400018208DF817000420ADF8140003208DF837
:10205000160005A94748FEF723FA04208DF817005B
:102060000820ADF8140003208DF8160005A941489A
:10207000FEF716FA01940020ADF810000C20ADF820
:102080000E000020ADF80C00ADF80A00ADF8080015
:1020900001A93A48FFF775FC01213848FFF7FDFC1C
:1020A000012240F225513548FFF703FD26208DF827
:1020B000000001208DF8030000208DF801008DF84C
:1020C00002006846FEF723F906B010BD10B54FF4C4
:1020D000E130FFF757FF4FF4E130FFF7A6FF10BDE7
:1020E0002DE9F04107460C46154600260DE014F890
:1020F000011B3846FFF73EFD00BF40213846FFF781
:10210000A7FD0028F9D0701C86B2AE42EFDBBDE817
:10211000F0810FB430B5CBB0054601AC50A80090AB
:102120004FF4947101A8009B4F9A01F01FFA002010
:1021300000900BE014F8011B2846FFF71BFD00BFC1
:1021400040212846FFF784FD0028F9D02078002898
:10215000F0D14BB030BC5DF814FB10B540F2255106
:102160000548FFF78BFD18B120210348FFF77DFDDF
:1021700010BD00000008014000380140004400404C
:1021800008B501210420FEF747FC1020ADF800003F
:102190008DF8030003208DF8020069460948FEF718
:1021A0007FF910210748FEF728FA08BD10B5102165
:1021B0000448FEF724FA10BD10B510210148FEF7BF
:1021C0001CFA10BD000801400246501AC017401CFE
:1021D000704770B505460E46144608E02278314631
:1021E000284600F00BFC05F10800C5B2641C2078FD
:1021F0000028F3D170BD70B505460E46144609E0BF
:1022000020223146284600F0F9FB05F10800C5B24E
:10221000601EC4B2002CF3D170BD10B500F0E9FB14
:10222000D2480078C8B9D2A200210846FFF7D1FFF2
:10223000D1A200214820FFF7CCFFD0A2022100202C
:10224000FFF7C7FFCFA202214820FFF7C2FFCEA2AF
:1022500004210020FFF7BDFF18E0C44800780128E2
:102260000AD1CBA200210846FFF7B3FFC2A2022188
:102270001820FFF7AEFF09E0C8A200210846FFF7CB
:10228000A8FFC0A202211820FFF7A3FF10BD38B598
:10229000B648007800B938BDB4480078012802D1AA
:1022A000C148007801E0C148007804460222114686
:1022B0000020FFF7A0FF01200223224619460090CC
:1022C000002000F0D9FB00BFE5E708B5A74800787B
:1022D00010B1FFF7DCFF08BD022200213020FFF71C
:1022E0008AFF022211463020FFF785FF03220421D6
:1022F0003820FFF780FFAE480078E8B10120009059
:10230000AC48827802230021302000F0B5FB012088
:102310000090A848027802231946302000F0ACFB58
:10232000A548007808B1A5A000E0A5A002460421B8
:102330003820FFF74EFF0EE0A2A200213020FFF769
:1023400048FFA0A202213020FFF743FF9CA20421F6
:102350003820FFF73EFF00BFBDE710B59A48007870
:1023600070B99348007888B1924880788E4909788E
:10237000884205DC8F4800788C490978884205DD61
:1023800001208D49087000F00DFD04E000208A490D
:10239000087000F000FD10BD10B5044614B1FFF741
:1023A00005FF01E0FFF708FF10BD10B58048007879
:1023B00040B1804A11789078844A13787E4A127826
:1023C00000F0B5FD10BD08B500F0B0FD684600F0A6
:1023D000C4FD78B19DF800007B4908709DF80100AC
:1023E0007A49087008460078FFF7D6FFFFF7B5FF77
:1023F000FFF7DBFF08BD0346022A04D18B4202DA55
:10240000581CC0B27047032A03D113B1581EC0B282
:10241000F8E71846F6E710B50020FFF715FD04466B
:10242000012C0FD151480078401C0321B0FBF1F280
:1024300001FB12004D490870FFF7EFFE02206449CE
:10244000087026E04948007801280FD1022C01D0FD
:10245000032C0BD12246632153480078FFF7CBFFB2
:102460005149087002205A49087012E03F4800782C
:1024700002280ED1022C01D0032C0AD1224663215E
:102480004A480078FFF7B7FF4849087002205049D2
:1024900008700CB1FFF761FF10BD4E480068401C8A
:1024A0004C490860704710B500F0ACF800F0BBFB79
:1024B000FFF7BAFC00F056FCFFF762FE00F028FDC3
:1024C00000203B4908703C4908703F4908703F496B
:1024D00008702320344908705020344908700020C7
:1024E0003D4908603A49087020490870FFF795FE99
:1024F000FFF7EBFE10BD10B536480468FFF78BFF01
:10250000FFF761FF3248007820B101280CD0022883
:1025100025D11EE0304801682046FFF755FE10B176
:1025200001202B4908701EE0224800F0C1F8012864
:1025300000D100E000201E490870FFF70EFFFFF7F2
:1025400034FF04F5FA60244908600220204908702D
:1025500009E0FFF7BAFE00201D49087003E00020E3
:102560001B49087000BF00BF10BD000044000020E0
:1025700054656D703A0000004300000048756D69B5
:102580003A00000025000000416C61726D3A0000C5
:1025900054454D50204C494D4954000048554D4933
:1025A000204C494D495400004100002042000020C9
:1025B0003D000020380000203E0000204F4E00006B
:1025C0004F464600455200003F00002040000020DA
:1025D00043000020300000203400002008B5012115
:1025E0000820FEF719FA4FF48050ADF800001020D3
:1025F0008DF8030003208DF8020069465648FDF768
:102600004FFF08BD10B5FFF7E9FF4FF48051524866
:10261000FDF7F3FF10BD08B54FF48050ADF8000092
:1026200048208DF8030069464B48FDF739FF08BD87
:1026300008B54FF48050ADF8000010208DF803006D
:1026400003208DF8020069464348FDF729FF08BDC5
:1026500070B50025002427E000BF4FF480513E48AC
:10266000FDF7B1FF0028F8D02820FFF77BFB4FF4DF
:1026700080513948FDF7A7FF01280ED100BF4FF464
:1026800080513548FDF79FFF0128F8D0C4F10701BC
:1026900001208840C0B2054304E0C4F107010120D5
:1026A00088408543601CC4B2082CD5DB284670BD29
:1026B00010B50446FFF7BCFF4FF480512648FDF7E4
:1026C0009EFF1220FFF76CFB4FF480512248FDF76C
:1026D00094FF1E20FFF746FBFFF79DFF4FF480514C
:1026E0001D48FDF770FF88BB00BF4FF480511A48AA
:1026F000FDF769FF0028F8D000BF4FF4805116485D
:10270000FDF761FF0128F8D0FFF7A2FF2070FFF767
:102710009FFF6070FFF79CFFA070FFF799FFE070CC
:10272000FFF796FF2071FFF783FF4FF480510A48AF
:10273000FDF763FF207861780844A1780844E178C8
:1027400008442179884202D1012010BD01E0002017
:10275000FBE70020F9E70000000C0140F94900E028
:10276000521C11F8013B002BFAD150087047002091
:1027700001E0411CC8B20A28FBDB704710B54FF4DA
:102780000071F148FDF73BFF4FF48071EE48FDF713
:1027900034FFFFF7ECFF4FF40071EB48FDF72DFF1E
:1027A00010BD08B501210820FEF736F901210846C1
:1027B000FEF732F90121E548FDF743FF4FF4807041
:1027C000ADF8000003208DF8020014208DF80300FE
:1027D0006946DD48FDF764FE4FF40070ADF8000077
:1027E0006946D948FDF75CFEFFF7C8FF08BD10B584
:1027F0004FF40071D448FDF700FF4FF48071D248C8
:10280000FDF7FBFEFFF7B3FF4FF40071CE48FDF775
:10281000F6FEFFF7ACFF4FF48071CB48FDF7EFFEFB
:10282000FFF7A5FF10BD10B54FF40071C648FDF7C6
:10283000E4FEFFF79CFF4FF48071C348FDF7DDFE17
:10284000FFF795FF4FF40071BF48FDF7BCFE08B1DC
:10285000012400E000244FF48071BB48FDF7CFFE57
:10286000FFF785FF204610BD70B50446002528E01F
:1028700004F0800028B14FF40071B348FDF7BDFEAD
:1028800004E04FF40071B048FDF7B9FEFFF76FFFA9
:102890004FF48071AC48FDF7B0FEFFF768FF4FF4CE
:1028A0008071A948FDF7ABFE072D04D14FF40071EC
:1028B000A548FDF7A2FE6006040EFFF758FF681C4E
:1028C000C5B2082DD4DB70BD10B50446FFF78FFFED
:1028D0007820FFF7C9FFFFF7A6FF0020FFF7C4FF2E
:1028E000FFF7A1FF2046FFF7BFFFFFF79CFFFFF7B1
:1028F00045FF10BD10B50446FFF779FF7820FFF7BC
:10290000B3FFFFF790FF4020FFF7AEFFFFF78BFF0D
:102910002046FFF7A9FFFFF786FFFFF72FFF10BD47
:1029200070B5002418E004F1B001C8B2FFF7CCFF85
:102930000020FFF7C9FF1020FFF7C6FF002507E0C2
:10294000834901EBC501085DFFF7D4FF681CC5B2E0
:10295000802DF5DB601CC4B2082CE4DB70BD70B5C3
:1029600004460D4605F1B001C8B2FFF7ADFFA11C4A
:10297000C1F3031141F01000FFF7A6FFA11C01F005
:102980000F0141F00100FFF79FFF70BD10B58D20D2
:10299000FFF79AFF1420FFF797FFAF20FFF794FF90
:1029A00010BD10B58D20FFF78FFF1020FFF78CFFB3
:1029B000AE20FFF789FF10BD70B50646002415E074
:1029C00004F1B001C8B2FFF77FFF0020FFF77CFFE2
:1029D0001020FFF779FF002504E03046FFF78AFF5B
:1029E000681CC5B2822DF8DB601CC4B2082CE7DB82
:1029F00070BD10B50020FFF7DFFF10BD2DE9F041DD
:102A000007460E46904600250024A8F12000C5B2D6
:102A1000812F02DD0027B01CC6B231463846FFF7D1
:102A20009EFF002407E004EB05114A4A505CFFF7C3
:102A300061FF601CC4B2082CF5DB701CC1B23846C3
:102A4000FFF78DFF002408E004EB05110831414A2F
:102A5000505CFFF74FFF601CC4B2082CF4DBBDE8EC
:102A6000F08110B50246012000E050430B1EA1F199
:102A70000104E1B2F9D110BD2DE9F04705468946C0
:102A800090461E46DDF820A000242FE0301B401E9B
:102A9000C1B20A20FFF7E5FFB8FBF0F00A21B0FB56
:102AA000F1F201FB1207A7B9BAF1000F08D0082113
:102AB00001FB0451C8B230224946FFF79FFF07E0EF
:102AC000082101FB0451C8B220224946FFF796FFB6
:102AD0000AE007F13001CAB2082101FB0451C8B273
:102AE0004946FFF78BFF00BF601CC4B2B442CDDB88
:102AF000BDE8F0872DE9F0470746884616460025D1
:102B00008BE03078A0284EDD002545E0702F04DDF5
:102B1000002708F1020000F0FF083078094911F899
:102B20001510884237D17078012101EB4501054A23
:102B3000515C88422FD141463846FFF710FF0024F0
:102B400011E00000F8080020000C014000023000F5
:102B50002C0900204800002004EB45117D4A505C00
:102B6000FFF7C8FE641C102CF6D308F10100C1B2B7
:102B70003846FFF7F4FE002407E004EB451110315E
:102B8000744A505CFFF7B6FE641C102CF5D307F1B5
:102B90001000C7B204E06D1C6F4800688542B5D3D1
:102BA00000BFB61C39E07A2F04DD002708F10200CF
:102BB00000F0FF083178694800F002FA8146B9F167
:102BC000000F29D041463846FFF7C9FE002409E02E
:102BD00099F80010203904EB0111614A505CFFF7AD
:102BE00089FE641C082CF3D308F10100C1B23846F9
:102BF000FFF7B5FE00240AE099F80010203904EB35
:102C000001110831564A505CFFF774FE641C082C11
:102C1000F2D307F10800C7B2761C307800287FF4A1
:102C200070AFBDE8F08710B5FFF7BBFDAE20FFF732
:102C30004BFE0020FFF748FE1020FFF745FE402026
:102C4000FFF742FEB020FFF73FFE8120FFF73CFE7A
:102C5000FF20FFF739FEA120FFF736FEA620FFF781
:102C600033FEA820FFF730FE3F20FFF72DFEC820DF
:102C7000FFF72AFED320FFF727FE0020FFF724FEF0
:102C8000D520FFF721FE8020FFF71EFED820FFF79A
:102C90001BFE0520FFF718FED920FFF715FEF120D7
:102CA000FFF712FEDA20FFF70FFE1220FFF70CFEEF
:102CB000DB20FFF709FE3020FFF706FE8D20FFF72F
:102CC00003FE1420FFF700FEAF20FFF7FDFDFFF726
:102CD00045FD21490860FFF78CFE10BD2DE9F05F2E
:102CE00006460F4690461C46DDF828A04FF0000B24
:102CF000E11704EB5171C910A4EBC10131B92046B1
:102D0000E11704EB5171C1F3C70506E02046E11756
:102D100004EB5171C910491CCDB23D4615E029465E
:102D20003046FFF71CFEB1460BE059464A1C1FFA1D
:102D300082FB1AF80100FFF7DDFD09F1010000F048
:102D4000FF09C145F1DB681CC5B2A542E7DBBDE860
:102D5000F09F00003806002020090020980800207D
:102D60004800002008B501210820FDF755FE4FF46A
:102D70000050ADF8000010208DF8030003208DF8FE
:102D8000020069460B48FDF78BFB4FF400510948E0
:102D9000FDF733FC08BD10B54FF400510548FDF7B1
:102DA0002CFC10BD10B54FF400510248FDF727FC74
:102DB00010BD0000000C01400020784908707849DF
:102DC000087078490870784908707047774800782B
:102DD000812811D17248007801280DD174480078FB
:102DE00000F001007349087071480078C0F340009A
:102DF0004870012070490870704710B50446674854
:102E00000078062852D2DFE800F00309141C32488B
:102E1000AA2C02D10120614908704AE0552C03D147
:102E200002205E49087003E0AA2C01D0FFF7C4FF1E
:102E30003FE05E4804705C48047003205749087006
:102E400037E0102C02D9FFF7B7FF32E05448047086
:102E50000020544908705448007860405249087076
:102E60000CB9052000E004204C49087021E04D49D0
:102E70000878411C4B4A11704D490C544A4800785F
:102E800060404949087010460078454909788842F1
:102E900002DB0520414908700BE04348007884427A
:102EA00001D1FFF793FFFFF787FF02E0FFF784FFF1
:102EB00000BF00BF10BD2DE9F04186B080460E4630
:102EC0001446102C02D906B0BDE8F081AA208DF876
:102ED000000055208DF801008DF802808DF8034028
:102EE00088EA0407002507E0715D281D0DF8001031
:102EF000705D4740681CC5B2A542F5DB201D0DF88A
:102F00000070621D69462D48FFF7EAF800BFDAE756
:102F100010B5FFF751FF0020264908704870264978
:102F200008704FF4E130FFF780F810BD7047F8B536
:102F300004460D4617461E468DF800408DF8015098
:102F400006F00101384661F35F008DF802000322AC
:102F500069460120FFF7AFFFF8BD014611B11648E1
:102F6000007808B9002070471248007808701148AE
:102F7000407848700020104A10700120F3E710B527
:102F800040F225510D48FEF779FE30B10B48FEF7AF
:102F9000F5FDC4B22046FFF730FF10BD2409002024
:102FA00026090020270900202809002025090020E3
:102FB000AC0D0020290900202B090020004400400E
:102FC000CAB2401E10F8011F8A4202D00029F9D16E
:102FD0000020704730B50B46014600202022012416
:102FE00009E021FA02F59D4205D303FA02F5491BD7
:102FF00004FA02F52844151EA2F10102F1DC30BDED
:103000002DE9F05F0546002092469B46884606461D
:10301000814640241BE0284641464746224600F0B0
:10302000FAF953465A46C01A914110D31146184630
:10303000224600F0E1F92D1A67EB01084F462246BF
:103040000120002100F0D8F917EB00094E41201EA5
:10305000A4F10104DFDC484631462A464346BDE878
:10306000F09F2DE9FE4F804681EA0300C00F0C4619
:10307000009021F0004123F00045B8EB0200A94187
:1030800005D24046214690461C460B46024623F098
:103090000040104347D0270DC7F30A00C3F30A517D
:1030A0000290401A019040286BDAC3F3130040F4F9
:1030B000801B0098924620B10023D2EB030A63EBF9
:1030C0000B0B01985946C0F14002504600F094F9AC
:1030D00006460D4650465946019A00F0ACF910EBF1
:1030E00008006141002487EA115284EAE7731A4319
:1030F00040D0009A62B3019A012A4FEA075215DCC8
:10310000001B61EB02014FF0004202EA0752CDE9D9
:103110000042001C41F5801132462B4600F0ACF90C
:1031200003B0BDE8F08F40462146F9E7001B61EB94
:103130000201001C41F5801300185B412018A2F524
:10314000001747EB030140EAD570B6196D4111E055
:103150006D084FEA360645EAC0754FEA0752001B74
:1031600061EB0201001C41F5801149084FEA300073
:103170000019514132462B4603B0BDE8F04F00F034
:103180006CB90098012240000023D0EB020263EBEF
:10319000E073009821464FEAE074B8EB000061EB61
:1031A0000401E9E783F000435BE781F0004158E761
:1031B0002DE9FE4F81EA030404F0004421F00041B0
:1031C00000944FF0000B23F0004350EA01045ED05E
:1031D00052EA03045BD0C3F30A54C1F30A552C44EA
:1031E000A4F2F3340194A0FB0254C1F3130141F49F
:1031F0008011C3F3130343F4801301FB024400FB6B
:10320000034E840A970A44EA815447EA8357A4FB91
:10321000076802958D0A05FB07854FEA932C04FB8E
:103220000C542705029D4FEA065847EA1637B5EBBE
:1032300008056EEB070C870E920E47EA811742EAEB
:103240008312A7FB0201B6EB0B0164EB00042B0D0C
:1032500043EA0C335E1844EB1C50DA465146E7FB58
:103260000201C5F313044FEA0B3343EA14534FEA48
:103270000432019C43EA0603A4F10C040294009C6E
:10328000CDE900B400F0F8F803B0BDE8F08F0020FD
:103290000146F9E72DE9F04D81EA030404F0004B03
:1032A00021F0004514464FF0000A23F0004150EA97
:1032B000050220D054EA01021DD0C5F30A57024688
:1032C000C5F31303C1F31300C1F30A5640F480158C
:1032D00043F48013A7EB0608101BD64608F2FD380E
:1032E00073EB050002D308F1010801E092185B417D
:1032F000B8F1000F03DA00200146BDE8F08D002090
:103300004FF48011064684460EE0171B73EB050749
:1033100005D3121B63EB050306434CEA010C490875
:103320004FEA300092185B4150EA0107EDD152EAB2
:10333000030012D082EA040083EA0501084305D0A5
:10334000101BAB4106D20122002306E000224FF001
:10335000004302E06FF0010253101AEB06004CEB41
:10336000085110EB0A0041EB0B01BDE8F04D00F0F5
:1033700074B8C1F30A52C1F3130140F2FF3341F4B0
:1033800080119A4202DA00200146704740F233432E
:103390009A42A2F2334202DC524200F03CB800F002
:1033A0002BB8000030B5041E71F1000404DB4FF0AF
:1033B0000044404264EB0101141E73F1000405DB7C
:1033C0001C464FF00043524263EB0403994208BF8E
:1033D000904230BD064C074D06E0E06840F0010326
:1033E00094E8070098471034AC42F6D3FCF782FE0D
:1033F000803E0008A03E0008202A04DB203A00FAA4
:1034000002F1002070479140C2F1200320FA03F33B
:10341000194390407047202A04DB203A21FA02F039
:103420000021704721FA02F3D040C2F120029140FE
:10343000084319467047202A06DBCB17203A41FA89
:1034400002F043EAE07306E041FA02F3D040C2F131
:103450002002914008431946704710B5141E73F1BD
:10346000000408DA401C41F1000192185B411A4344
:1034700001D120F0010010BD2DE9F04D92469B4690
:1034800011B1B1FA81F202E0B0FA80F22032904636
:10349000FFF7B2FF04460F4640EA0A0041EA0B017B
:1034A00053465A46084313D0114653EA010019D037
:1034B000C8F140025046FFF7AEFF05460E465046A3
:1034C00059464246FFF798FF084305D0012004E023
:1034D00020463946BDE8F08D0020054346EAE076F7
:1034E0002C4337430A986305E40AA0EB0800002246
:1034F000FD0A44EA47540A3002D500200146E9E7B4
:10350000010510196941DDE9084500196941BDE867
:10351000F04DA2E770B58C1810F8015B15F00703A9
:1035200001D110F8013B2A1106D110F8012B03E05C
:1035300010F8016B01F8016B5B1EF9D12B0705D464
:103540000023521E0DD401F8013BFAE710F8013BAD
:10355000CB1A921C03E013F8015B01F8015B521EC9
:10356000F9D5A142D8D3002070BD00007CB5044637
:1035700000201D46164600290BD0491ECDE900410A
:10358000044B6A462946304600F0D8F8009A0021DC
:1035900011707CBD6B3E000802E008C8121F08C114
:1035A000002AFAD170477047002001E001C1121FC4
:1035B000002AFBD1704700002DE9FF5F82B0002197
:1035C000DDE90430020DDDF840B0034318D044F6C5
:1035D0001050A2F2FF3242431514119801281FD057
:1035E000A5EB0B00401C5FEA000A4FF000064E4FAF
:1035F000DFF83891B046504615D5CAF1000413E003
:10360000119801244AA3012801D16FEA0B01029805
:10361000119AC0E90031C0E9024206B0BDE8F09F4E
:10362000CBF10000DFE704460021404A491842EB95
:103630000450CDE9001012E0E00707D032463B46C7
:1036400040464946FFF7B4FD8046894632463B4630
:1036500010461946FFF7ACFD06460F466410002CD5
:10366000EAD1DDE90401DDE90023BAF1000F06DA51
:10367000FFF79EFD42464B46FFF79AFD05E0FFF738
:1036800009FE42464B46FFF705FE04460E46002261
:10369000284BFFF787FE03D84FF0FF30014607E0C5
:1036A0000022254B20463146FFF7DBFCFFF761FE89
:1036B000102409E0002C0ADB0A220023FFF7A0FCFB
:1036C000039B30321A55641E50EA0102F2D1641C89
:1036D000039AC4F111031444119A012A03D0012260
:1036E00008430DD10AE0084304D000204FF0110B2D
:1036F000119072E7A3EB0B056D1E0DE05B4504DD39
:103700004FF0000205F1010504E003DA4FF000027A
:10371000A5F10105002AECD002981199C0E9023107
:10372000C0E9004579E70000000014400000F03FC8
:10373000300000000000F0430000E03F2DE9FF4FA3
:1037400095B09B468946064600250FE2252877D18D
:1037500000242746F84A0121059400E0044316F8A6
:10376000013F203B01FA03F01042F7D130782A28BC
:1037700011D06FF02F033078A0F13002092A16D84B
:10378000059A44F0020402EB820203EB4202104469
:10379000761C0590EFE759F8042B0592002A03DA0E
:1037A000504244F40054059044F00204761C3078F2
:1037B0002E2816D116F8010F44F004042A280DD043
:1037C0006FF02F023078A0F13003092B09D807EBF6
:1037D000870302EB4303C718761CF3E759F8047B11
:1037E000761C30786C280FD006DC4C2817D068285F
:1037F0000DD06A2814D104E0742810D07A280FD193
:103800000DE044F400140AE044F4801401E044F4B0
:1038100040147278824202D104F58014761C761C22
:10382000307866280BD013DC582877D009DC0028C4
:1038300075D04528F6D04628F4D047281AD19DE106
:1038400018E0632835D0642879D0652812D195E135
:10385000702873D008DC6728F1D069286FD06E28F3
:103860000DD06F2806D1B5E073282CD0752875D0FF
:10387000782874D05A46179990476D1C75E1C4F3A7
:103880000250022809D003280DD0D9F800100428CE
:103890000DD00D6009F1040967E1D9F80010EA17AD
:1038A000C1E90052F6E7D9F800100D80F2E70D707B
:1038B000F0E719F8041B8DF8001000208DF80100C6
:1038C000EA46012003E059F804AB4FF0FF306107EE
:1038D0004FF0000102D40DE008F101018846B94221
:1038E0000FDA8045F8DB1AF808100029F4D108E057
:1038F00008F1010188468142FADB1AF80810002914
:10390000F6D105985B46A0EB080721463846179A82
:1039100000F094FA284400EB080507E04DE029E1A7
:103920000DE01AF8010B5A4617999047B8F10108B3
:10393000F7D25B4621463846179A13E142E00A2245
:103940000092C4F302524FF0000A022A08D059F83C
:1039500004CB032A4FEAEC710AD00DE029E02AE0FB
:1039600009F1070121F00702F2E802C1914609E0DE
:103970000FFA8CFC4FEAEC71042A03D14FFA8CFC4D
:103980004FEAEC71002907DA0A460021DCF1000C4D
:1039900061EB02012D2202E0220504D52B228DF8D5
:1039A0000420012203E0E20701D02022F7E790463D
:1039B00059E00A2102E010220DE010214FF0000A28
:1039C00000910BE010224FF0000A44F00404082795
:1039D000009203E008224FF0000A0092C4F3025262
:1039E000022A05D059F804CB0021032A08D009E0A7
:1039F00009F1070121F00702F2E802C1914605E052
:103A00001FFA8CFC042A01D10CF0FF0C4FF00008C7
:103A1000220728D5702806D0009B83F0100353EAB4
:103A20000A0305D00EE040228DF80420012208E0B0
:103A30005CEA010206D030228DF804208DF80500E2
:103A400002229046009B83F0080353EA0A030AD13E
:103A50005CEA010201D1620705D530228DF804200D
:103A60004FF001087F1E582804D034A003900EA800
:103A700002900DE036A0F9E753466046009AFFF742
:103A8000BFFA84460398825C0298401E029002703E
:103A90005CEA0100F0D1029806A9081A00F1200A98
:103AA000600702D524F4803400E00127574502DD89
:103AB000A7EB0A0000E0002000EB0A010090059847
:103AC0004144401A0590E00306D45B462146179A0C
:103AD000059800F0B3F90544002706E001A85A460E
:103AE000C05D179990476D1C7F1C4745F6DBE003CE
:103AF0000CD55B462146179A059800F09FF90544BE
:103B000004E030205A46179990476D1C0099481ED2
:103B100000900029F5DC08E0029802995A460078E6
:103B2000491C0291179990476D1CBAF10001AAF146
:103B3000010AF1DC65E1000009280100303132336F
:103B400034353637383961626364656600000000D9
:103B500030313233343536373839414243444546C3
:103B60000000000000F058F90544761C3078002869
:103B70007FF4ECAD19B02846BDE8F08F620700D4A1
:103B8000062709F1070222F0070CFCE80223E146B0
:103B900003F000485FEA080C02D00FF2702C0DE031
:103BA0005FEA045C02D50FF2682C07E05FEAC47C90
:103BB00002D00FF2602C01E0AFF2700C4FF0FF3832
:103BC00023F00043CDF850C065280CD006DC452812
:103BD00009D046281DD047283DD13DE0662818D0A1
:103BE00067287ED138E00021112F01DB112000E091
:103BF000781CCDE9000106A90EA8FFF7DDFCDDE980
:103C00000F010E9A03910021009207F1010A04911D
:103C10004DE04FF000400097CDE9011006A90EA835
:103C2000FFF7CAFCDDE90F0203920E9B11990022F7
:103C3000DDF80CA00093049211B9791C00EB010A85
:103C4000B7EB0A0004D4C0F1FF3007F1010A049079
:103C5000AAEB0700019044E0012F00DA01270021C0
:103C6000112F01DD112000E03846CDE9000106A941
:103C70000EA8FFF7A1FCDDE90F010E9A03910021C8
:103C800004910092BA4621070CD40399514500DAF9
:103C90008A46BAF1010F05DD009AAAF10101515CD3
:103CA000302908D0B84202DA10F1040F06DA0121F7
:103CB000CDE9011015E0AAF10101E9E7002805DCD2
:103CC000049901440491AAEB000102E0411C514512
:103CD00000DD8A460499401A401C01904FF00040D4
:103CE0000290200704D40198504501DBCDF80480F0
:103CF00000208DF84F0002980DF14F07B0F1004FF2
:103D000025D02B200E9002984FF0020800280CDAE4
:103D1000404202902D200E9007E00A210298FFF702
:103D200059F93031029007F8011DB8F10001A8F1EE
:103D30000108F2DC02980028EFD1791E0E98087075
:103D4000307800F0200040F0450007F8020D12A87E
:103D5000C01B00F107081498007800B1012000EBA7
:103D60000A01019801EBE07105984144401A401E98
:103D70000590E00306D45B462146179A059800F0AB
:103D80005DF805441498007818B15A461799904781
:103D90006D1CE00324D55B462146179A059800F078
:103DA0004DF805441CE00498002807DBDDE9030119
:103DB000884203DD0098405C179901E01799302094
:103DC0005A469047049805F10105401C049001985B
:103DD000401E019004D12E205A46179990476D1C21
:103DE000BAF10001AAF1010ADDDC05E017F8010BC8
:103DF0005A46179990476D1CB8F10001A8F10108C7
:103E0000F4DC5B462146179A0598ABE62D000000CE
:103E10002B000000200000002DE9F04104460025A1
:103E20001E461746880404D405E039462020B047D2
:103E30006D1C641EF9D52846BDE8F0812DE9F041DE
:103E4000044600251E469046C80301D5302700E0F1
:103E50002027880404D505E041463846B0476D1C4C
:103E6000641EF9D52846BDE8F0814A68002A06D0CC
:103E70000A68531C0B6010704868401E4860704709
:103E8000A03E0008000000202C09000014350008A6
:103E90008C4400082C09002094080000A835000874
:103EA0001184A24A04680901020304060708090CE8
:103EB00069103D0204060814012E72F852331C10DA
:103EC0000C0603912C40C07803112C043F040321FD
:103ED000367088FC0830261820FF211E14F008F0E8
:103EE00033E0184D211C031E11338870000C101E86
:103EF0002123241927211010160E45E0180402254D
:103F0000071820403D020418E0692C201807071705
:103F10004080F08040403F0202010F0102283AF049
:103F2000D41C01011F04912B80B066B1191D290119
:103F3000912A30A5592C146018043C6018061D1EE7
:103F4000E010080810721F0F102020100FF05310FF
:103F5000F83620203F20203C700808C21E3028245C
:103F60002221441E3008888848082E18202020115D
:103F7000CC3BC0203227070424243F241AF82023F6
:103F800008084B19212036E0108888184B0F1110B3
:103F90001E380808C8382021523F1A702E29608F19
:103FA0001C222121221C90111D3122221190196105
:103FB000CAC0C26A80C659081C40201050170102AE
:103FC000040810204A4001114A04012119152A4011
:103FD0003219251B0402F21B7048D13AF0501A36F0
:103FE0000F1EC030C828E87028080718272423149B
:103FF0000B6F2A387E280D203C2302022738200828
:10400000F888889F4B203FF01BC0303F1B0838309A
:10401000191019781B08F80F194039201B100F10C0
:104020003E8888E8081010AC23201810112A035E7F
:104030002940223829402C221E024019A41809F8D0
:1040400008203F21010121252A08522981294241C6
:1040500049112EC08080807F0E2FF888C028180854
:10406000501C0126382F2940292F29801B20301071
:1040700012F81AF81413203F190229204B30C0609F
:104080001A2074123F4BE010B06B0F10B029D01AF9
:10409000F0301980220179203F18242438504FC075
:1040A0004C888870C0140C30204B7088C1173820A1
:1040B0002121221C3A189F4A188239A049D0112A7E
:1040C0001F90121F240878881BC838151C07380E4B
:1040D00060191A1AF8201114033C0714073C03480E
:1040E00014081868808068180820302C03032C30CE
:1040F000200838C82F5950298F29102F2038262101
:104100002020681145FE020202257F4040401A0C23
:10411000E0611C0106380B191D42FE191D527F1A61
:1041200004120211045A80011930D91D39162118C0
:104130000819242222223F20AB390F115F3F1120A2
:1041400020110E21311A0E104B2011104B88F8103F
:104150002A10B359401A1F3F2B22130F16F08888DC
:1041600088181A20D029D1497A21176B94949493F6
:10417000603960190F4C203F21F3548098987930B2
:1041800059121AC02719D1193039311F203F240282
:104190002D30212A0812893069D7294B2903190BA0
:1041A000C96079A019BF2B201FDD390F9C80FFA1AA
:1041B000E0191229D03BA0FF0C3950194112208A76
:1041C00001C01B3324012A190F3AE0413952290F4B
:1041D000392349603C103F202C29053F010E30084F
:1041E000060170291038080F300C030C300F2C49D1
:1041F000A14E312E0E31200C29621D818E70183097
:1042000059D1215721302C22213055807C02024483
:104210003F404072FF39083C02027C8F5440403FCF
:104220004E02010202042F71680AF8888C8A89887C
:104230008888F8374A4401594729D8380824FC228D
:10424000222223224F19013C42827F0819771C4009
:1042500044C42B2009401010FF101010F0280D103E
:104260003C131014B840300E01408072200F101023
:10427000D0FF9014E4AFA4A4A4AFE4041B040397FC
:10428000180B894B2A1A0E1A2A4B8880202A900173
:1042900039401C111610F81C60203F4B111E030CF6
:1042A000102040934FFE0222428272052AFE9E2E6B
:1042B000100806010E051C4E807F2F300D30AC63B8
:1042C00030201018A744A4140C18092267221212D7
:1042D0000402FD952B45FDA0144042CC1F0444640C
:1042E0005C47F41319813D40201F20DF2A7F051908
:1042F00080197A180B50445465C644645444402BCA
:10430000300E827F0182824A562322524E82021A46
:10431000F02339DE29DF311B0F04012AFF05420F8C
:104320001DFC0404FC662C4040FF05391F39181998
:10433000E7611E1C0CE010082E1A08DD6119DB195C
:10434000011A088D211D1060028CE52A920129DFD7
:10435000180A04047E01407E42427E024C427E40A6
:1043600020491F7920180A4448507F40407F504818
:10437000B019812808242424FC25262408120418B6
:104380001040308F80844C55252525554C808080E9
:10439000E0180CD0FF905020504C434C5020A01BF4
:1043A0000403991809414458414E60584710496028
:1043B0001502F202FE2AF8B32960178047300F1069
:1043C000274447807F400C22322AA6A2622111098D
:1043D0008101200E4222130B42827E02020A122326
:1043E00046162030AC6330100A88C8A8998E88A879
:1043F000C888200A22672212128040300F153F40E1
:1044000040711060202122232425262728292A2BC9
:104410002C2D2E2F303132333435363738393A3B64
:104420003C3D3E3F404142434445464748494A4B54
:104430004C4D4E4F505152535455565758595A5B44
:104440005C5D5E5F606162636465666768696A6B34
:104450006C6D6E6F707172737475767778797A7B24
:104460007C7D7EE027D7D4CAD6B6AFC4A3CABDCD63
:10447000F8C2E7C1ACBDD3D6D0D2B6A1E6CEC2CA8F
:0C448000AAB6C8BCECB2E2CFB5CDB300C8
:04000005080000ED02
:00000001FF
